:100000000C94C7020C94EF020C94EF020C9463045E
:100010000C9463040C9463040C94EF020C94EF02B0
:100020000C94EF020C94EF020C94EF020C94EF028C
:100030000C94EF020C94EF020C94EF020C94EF027C
:100040000C9419040C94EF020C94DC0A0C94B60A7C
:100050000C94EF020C94EF020C94EF020C94EF025C
:100060000C94EF020C94EF0200407A10F35A00A0B7
:10007000724E18090010A5D4E80000E87648170071
:1000800000E40B54020000CA9A3B000000E1F505B1
:10009000000080969800000040420F000000A086FB
:1000A00001000000102700000000E803000000002D
:1000B0006400000000000A000000000001000000D1
:1000C00000002C76D888DC674F0823DFC1DFAE59EB
:1000D000E1B1B796E5E3E453C63AE651997696E87E
:1000E000E6C28426EB898C9B62ED407C6FFCEFBC02
:1000F0009C9F40F2BAA56FA5F490055A2AF75C932D
:100100006B6CF9676DC11BFCE0E40D47FEF520E662
:10011000B500D0ED902E0300943577050080841E45
:10012000080000204E0A000000C80C333333330FA0
:10013000986E12831141EF8D2114893BE65516CF3D
:10014000FEE6DB18D1844B381BF77C1D901DA4BB49
:10015000E424203284725E228100C9F124ECA1E5FE
:100160003D27000000000000005F000000070007BE
:1001700000147F147F14242A7F2A12231308646238
:1001800036495522500005030000001C22410000A2
:1001900041221C0014083E081408083E08080050BC
:1001A00030000008080808080060600000201008FF
:1001B00004023E5149453E00427F400042615149A0
:1001C000462141454B311814127F102745454539CA
:1001D0003C4A494930017109050336494949360607
:1001E0004949291E00363600000056360000081422
:1001F0002241001414141414004122140802015165
:100200000906324979413E7E1111117E7F494949E3
:10021000363E414141227F4141221C7F49494941AB
:100220007F090909013E4149497A7F0808087F0092
:10023000417F41002040413F017F081422417F401F
:100240004040407F020C027F7F0408107F3E414106
:10025000413E7F090909063E4151215E7F09192966
:1002600046464949493101017F01013F4040403F35
:100270001F2040201F3F4038403F6314081463078D
:10028000087008076151494543007F41410002045D
:100290000810200041417F00040201020440404058
:1002A0004040000102040020545454787F484444E4
:1002B000383844444420384444487F38545454180F
:1002C000087E0901020C5252523E7F080404780055
:1002D000447D40002040443D007F10284400004100
:1002E0007F40007C041804787C0804047838444477
:1002F00044387C14141408081414187C7C08040472
:10030000084854545420043F4440203C4040207C42
:100310001C2040201C3C4030403C44281028440C09
:100320005050503C4464544C440008364100000096
:100330007F00000041360800100808100878464188
:1003400046780000000000000000000000000000EF
:10035000000000000000000000000000000000009D
:10036000000000000000000000000000000000008D
:10037000000000000000000000000000000000007D
:1003800000800000000000000000000000000000ED
:10039000000000000000000000000000000000005D
:1003A00070F8FCFAF99C06030100000000001070D0
:1003B000F8F8F0E0E060E07E7E3E3E3C38303030E1
:1003C000383E3E3E3E3E7060E060E0F0F8F8F830C7
:1003D0001000000000000101068CF9FAFEFC70001C
:1003E000000000000000000000000000000000000D
:1003F000000000000000010367E7EEECE8E8F8F811
:10040000F81818181810D1707EFFF3E0E0D0C8C0BB
:10041000C0C0C0C7C7C0C0C0C8D0E0E0F3FF7E7096
:10042000D1511818181858D8D8C8C8CCCEC7C78307
:1004300001000000000000000000000000000000BB
:10044000000000000000000000000000181C1C1C40
:100450001C1FBFFFF8E08000000000010000010148
:10046000C3F7FFFD4DCFE3A3A3C74FFFFFF7C701BE
:10047000010000010100000080C0F0FFFFBF3D3916
:1004800039383000000000000000000000000000CB
:10049000000000000000000000000000000000005C
:1004A0000000000207070703030303677F7E7C3C0D
:1004B0003C18183337F7F7FFFEF8712121387EFF1B
:1004C000FFF7F7F31818183C3C7E7E7F23030303E5
:1004D0000307070300000000000000000000000008
:1004E000000000000000000000000000000000000C
:1004F00000000000000000000000000000000000FC
:1005000000000000000000000001010101010000E6
:1005100000000000010101010000000000000000D7
:1005200000000000000000000000000000000000CB
:1005300000000000000000000000000000080002B1
:10054000010000030407000000000000000000009C
:100550000000250028002B000000000024002700D8
:100560002A00040404040404040402020202020235
:100570000303030303030102040810204080010267
:1005800004081020010204081020A210670E112494
:100590001FBECFEFD8E0DEBFCDBF23E0A8EAB2E0B8
:1005A00001C01D92A937B207E1F712E0A0E0B1E067
:1005B000E4E1F1E302C005900D92A83AB107D9F742
:1005C00012E0C6ECD2E004C02197FE010E94621640
:1005D000C53CD107C9F70E946B0E0C947D180C9492
:1005E0000000FC01918D828D981761F0828DDF01F2
:1005F000A80FB11D5D968C91928D9F5F9F73928F16
:1006000090E008958FEF9FEF0895FC01918D828D0A
:10061000981731F0828DE80FF11D858D90E00895D7
:100620008FEF9FEF0895FC01918D228D892F90E02F
:10063000805C9F4F821B91098F739927089580E0FA
:1006400090E0892B29F00E94290A81110C94000066
:1006500008953FB7F8948091B2029091B302A091AF
:10066000B402B091B50226B5A89B05C02F3F19F082
:100670000196A11DB11D3FBFBA2FA92F982F882722
:10068000820F911DA11DB11DBC01CD0142E0660F7D
:10069000771F881F991F4A95D1F70895089580E024
:1006A00090E008950E945F18CF92DF92EF92FF9240
:1006B0000F931F93CF93DF931F92CDB7DEB78A01BD
:1006C000843578F4663068F4809373036093740320
:1006D000806869830E94A90C6981862F80640E94CA
:1006E000A90CF801C080D18085E0E82E06E010E07A
:1006F000F60121916F01222329F12A30A1F41092F1
:1007000073038091740390E00196B8010E942C1647
:10071000F82E8093740380E80E94A90C8F2D8064CA
:100720000E94A90CE5CF30E020523109E29EC001C1
:10073000E39E900D112465E070E08E599E4F0E945B
:10074000890CD6CF0F90DF91CF911F910F91FF9021
:10075000EF90DF90CF900895FC01848DDF01A80F0A
:10076000B11DA35ABF4F2C91848D90E001968F73D9
:100770009927848FA689B7892C93A089B1898C91F8
:1007800080648C93938D848D981306C00288F389BE
:10079000E02D80818F7D8083089590E0FC01E65CF0
:1007A000FA4F3491FC01EA58FA4F2491FC01EE59BA
:1007B000FA4FE491EE2309F43BC0332339F133308F
:1007C00091F038F43130A9F0323001F584B58F7DE5
:1007D00012C0373091F03830A1F03430B9F4809144
:1007E00080008F7D03C0809180008F778093800090
:1007F0000DC084B58F7784BD09C08091B0008F771C
:1008000003C08091B0008F7D8093B000F0E0EE0FC8
:10081000FF1FE25BFA4FA591B4918FB7F894EC916A
:10082000611103C020952E2301C02E2B2C938FBF66
:1008300008951F920F920FB60F9211242F933F939A
:100840008F939F93AF93BF938091AE029091AF022D
:10085000A091B002B091B1023091AD0223E0230F1C
:100860002D3720F40196A11DB11D05C026E8230FE8
:100870000296A11DB11D2093AD028093AE0290930C
:10088000AF02A093B002B093B1028091B2029091F6
:10089000B302A091B402B091B5020196A11DB11DA1
:1008A0008093B2029093B302A093B402B093B502C6
:1008B000BF91AF919F918F913F912F910F900FBE5C
:1008C0000F901F9018951F920F920FB60F92112440
:1008D0000F900FBE0F901F90189508958EBD0000C9
:1008E0000DB407FEFDCF8EB508958CBD9DBD089556
:1008F000CF93DF9300D000D000D0CDB7DEB768EF44
:1009000071E082E493E00E94890C69E171E0CE011C
:1009100001960E94A10AAE014F5F5F4F60E070E058
:1009200080E090E00E945403CE0101960E949C0A50
:1009300069E271E0CE0101960E94A10AAE014F5F0B
:100940005F4F65E070E080E090E00E945403CE01CC
:1009500001960E949C0A26960FB6F894DEBF0FBE41
:10096000CDBFDF91CF9108953F924F925F926F92EA
:100970007F928F929F92AF92BF92CF92DF92EF922F
:10098000FF920F931F93CF93DF93CDB7DEB7CE5473
:10099000D1090FB6F894DEBF0FBECDBF7C01109217
:1009A000AA02DC0114968D919C911597892B09F46C
:1009B0004DC069E371E08D919C910E946D18892B67
:1009C00009F044C080E00E94AC0C62E471E0CE010A
:1009D00001960E94A10AAE014F5F5F4F60E070E098
:1009E00080E090E00E945403CE0101960E949C0A90
:1009F00063E571E0CE0101960E94A10AAE014F5F4E
:100A00005F4F61E070E080E090E00E945403CE010F
:100A100001960E949C0A6CE571E0CE0101960E944D
:100A2000A10AAE014F5F5F4F62E070E080E090E0AE
:100A30000E945403CE0101960E949C0A81E090E03E
:100A40009093A9028093A8028093AA028091A802A1
:100A50009091A902019709F0DCC280E00E94AC0CE1
:100A600062E471E08E010F5F1F4FC8010E94A10A6E
:100A7000A80160E070E080E090E00E945403C801AB
:100A80000E949C0A63E571E0C8010E94A10AA801C6
:100A900061E070E080E090E00E945403C8010E9491
:100AA0009C0A6CE571E0C8010E94A10AA80162E0FD
:100AB00070E080E090E00E945403C8010E949C0A0C
:100AC00028E030E040E050E0B701CE01CF960E9430
:100AD000210E6CE272E0C8010E94A10A6CE272E091
:100AE000CE0107960E94A10A6CE272E0CE010D963B
:100AF0000E94A10A6CE272E0CE0143960E94A10A14
:100B00006CE272E0CE0149960E94A10A6CE272E0AA
:100B1000CE014F960E94A10A6CE272E0CE0185964A
:100B20000E94A10A6CE272E0CE018B960E94A10A9B
:100B30002BE030E049E050E0B701CE01C1960E94C1
:100B4000210EBE016F5C7F4FC8010E94750DCE0162
:100B5000C1960E949C0A2EE030E04CE050E0B701C4
:100B6000CE01C1960E94210EBE016F5C7F4FCE0167
:100B700007960E94750DCE01C1960E949C0A21E144
:100B800030E04FE050E0B701CE01C1960E94210E47
:100B9000BE016F5C7F4FCE010D960E94750DCE0198
:100BA000C1960E949C0A24E130E042E150E0B70186
:100BB000CE01C1960E94210EBE016F5C7F4FCE0117
:100BC00043960E94750DCE01C1960E949C0A27E1B2
:100BD00030E045E150E0B701CE01C1960E94210E00
:100BE000BE016F5C7F4FCE0149960E94750DCE010C
:100BF000C1960E949C0A2AE130E048E150E0B7012A
:100C0000CE01C1960E94210EBE016F5C7F4FCE01C6
:100C10004F960E94750DCE01C1960E949C0A2DE14F
:100C200030E04BE150E0B701CE01C1960E94210EA9
:100C3000BE016F5C7F4FCE0185960E94750DCE017F
:100C4000C1960E949C0A20E230E04EE150E0B701DC
:100C5000CE01C1960E94210EBE016F5C7F4FCE0176
:100C60008B960E94750DCE01C1960E949C0A21961A
:100C70006EAD7FAD2197CE01C1960E94A10AAE0153
:100C80004F5C5F4F61E070E083E290E00E945403AC
:100C9000CE01C1960E949C0A69817A81CE01C196DB
:100CA0000E94A10AAE014F5C5F4F62E070E083E2F8
:100CB00090E00E945403CE01C1960E949C0A6F816D
:100CC0007885CE01C1960E94A10AAE014F5C5F4FAC
:100CD00062E070E08FE290E00E945403CE01C19682
:100CE0000E949C0A6D857E85CE01C1960E94A10A54
:100CF000AE014F5C5F4F62E070E08BE390E00E94DA
:100D00005403CE01C1960E949C0A6B897C89CE0156
:100D1000C1960E94A10AAE014F5C5F4F62E070E095
:100D200087E490E00E945403CE01C1960E949C0A81
:100D3000698D7A8DCE01C1960E94A10AAE014F5CE9
:100D40005F4F63E070E083E290E00E945403CE01C5
:100D5000C1960E949C0A6F8D78A1CE01C1960E9417
:100D6000A10AAE014F5C5F4F63E070E08FE290E05C
:100D70000E945403CE01C1960E949C0A6DA17EA1DF
:100D8000CE01C1960E94A10AAE014F5C5F4F63E0A5
:100D900070E08BE390E00E945403CE01C1960E9464
:100DA0009C0A6BA57CA5CE01C1960E94A10AAE014A
:100DB0004F5C5F4F63E070E087E490E00E94540373
:100DC000CE01C1960E949C0ACE018B960E946A0DAC
:100DD000D62ECE0185960E946A0DC62ECE014F9664
:100DE0000E946A0DB62ECE0149960E946A0DA62E6B
:100DF000CE0143960E946A0D962ECE010D960E945A
:100E00006A0D862ECE0107960E946A0D762EC801C5
:100E10000E946A0D662E27961FAE1EAE2797299652
:100E20001FAE1EAE29972B961FAE1EAE2B97219696
:100E30006EAD7FAD21976115710549F025964EADD8
:100E40005FAD2597CE018B5B9F4F0E94D50D69AAA0
:100E50007AAA8BAA9CAAADAABEAACFAAD8AECE0166
:100E60008B5B9F4F0E946A0D60935D0370935E03DE
:100E700080935F039093600310926A0310925C0367
:100E800088E080936103FE01F196A2E6B3E06E0173
:100E900029E3C20ED11C81918D93EC15FD05D9F784
:100EA000A12CB12C60E3662E70E4572EE0E54E2EA7
:100EB000F3E03F2E3C0C69AE5AAE4BAE4601D40176
:100EC0007D904D01872D0E94990B982F987083FD7E
:100ED00002C0739404C03810F2CF712C92E0BFEFBF
:100EE000AB1ABB0A923029F4E2E3AE16B10419F74B
:100EF00059C2F2E3AF16B10409F454C24091610340
:100F000062E673E085E0870D0E94330C80916A03EE
:100F1000813029F480916103806480936103609142
:100F2000610384E0870D0E94100C80905D03909017
:100F30005E03A0905F03B090600380915C038130FA
:100F4000B9F48CAE9BAEA50166277727942F9C71D0
:100F5000842F837028E0929F800D112488608AAFCF
:100F60004A0155E0969487945A95E1F789AE0EC0F0
:100F7000C40123E0969587952A95E1F789AF82947D
:100F8000880C30EE83228AAE1CAE1BAE44E0B60164
:100F9000872D0E94330C7A9448E068E0872D0E94E8
:100FA000BC0BA12CB12C8FEFA81AB80A872D0E9478
:100FB000990B83FF05C092E3A916B104A1F7F2C112
:100FC000A2E3AA16B10409F4EDC165E671E0C60119
:100FD0000E94A10AA60165E070E080E090E00E9416
:100FE0005403C6010E949C0ACE018B5B9F4F0E9456
:100FF0009C0AFE01F1966F01F6E0CF1AD108C601F6
:101000000E949C0AC016D106B9F7CE01CF960E9465
:101010009C0AD70114968D919C911597892BA1F06C
:1010200064E771E08D919C910E946D18892B61F4A9
:1010300080E00E94AC0C0E9478041092A9021092E9
:10104000A80281E08093AA02F70184819581892B0F
:1010500039F169E771E0808191810E946D18892BD7
:10106000F9F480E00E94AC0C60E871E0CE010196DA
:101070000E94A10AAE014F5F5F4F60E070E080E028
:1010800090E00E945403CE0101960E949C0A82E0E7
:1010900090E09093A9028093A80281E08093AA0235
:1010A0008091A8029091A902029709F02AC1C70174
:1010B0000E946A0D0E94B9134B015C0120E030E0F0
:1010C00048EC52E40E947A1520E030E04FE753E408
:1010D0000E9418146B017C012F966CAF7DAF8EAF10
:1010E0009FAF2F970E94EC15CB010E94110DA70115
:1010F0009601C701B6010E942716882319F080E9DE
:1011000091E01AC026013701E89477F82FEF3FEFFE
:101110004FE75FE7C301B2010E94271681110FC09C
:101120002FEF3FEF4FE75FE7C301B2010E94B21319
:1011300018162CF484E991E00E94870B8BC02FEFE6
:101140003FEF4FE75FE4C701B6010E942216181671
:101150001CF488E991E0F0CF2FEF3FEF4FE75FEC11
:10116000C701B6010E94B21387FDF3CF20E030E043
:10117000A901C701B6010E94B21387FF14C0E09114
:10118000B902F091BA020190F081E02D6DE289EB95
:1011900092E00995D701C601B0582F968CAF9DAF4C
:1011A000AEAFBFAF2F972AE037ED43EA5BE32F9650
:1011B0006CAD7DAD8EAD9FAD2F970E940E152B01AE
:1011C0003C010E94F3156B017C010E94B7139B0147
:1011D000AC01C301B2010E940D152B013C014AE094
:1011E000C701B6010E94D00CE091B902F091BA0299
:1011F0000190F081E02D6EE289EB92E0099520E00C
:1012000030E040E251E4C301B2010E9418142B0106
:101210003C010E94F3156B01E12CF12C4AE0C7015F
:10122000B6010E94D00CC701B6010E94B7139B0102
:10123000AC01C301B2010E940D1520E030E040E294
:1012400051E40E9418140E94F31580E090E04AE0F7
:101250000E94D00C8AE292E00E94870B80E00E94FC
:10126000AC0C60E871E0CE0101960E94A10AAE01CB
:101270004F5F5F4F60E070E080E090E00E945403B9
:10128000CE0101960E949C0A6CE971E0CE010196A4
:101290000E94A10AAE014F5F5F4F62E070E080E004
:1012A00090E00E945403CE0101960E949C0A1AAA63
:1012B00019AA1CAA1BAA1EAA1DAA8E010F5F1F4FE6
:1012C00022E044E0C501B4010E94F010BC01CE014F
:1012D000C1960E94000EAE014F5C5F4F62E070E06D
:1012E00085E290E00E945403CE01C1960E949C0AC0
:1012F00082E090E09093A9028093A80281E080931D
:10130000AA028091A8029091A902892B09F04DC0F0
:101310008091AA02811149C00E94AC0C68EA71E078
:10132000CE0101960E94A10AAE014F5F5F4F62E0BD
:1013300070E080E090E00E945403CE0101960E948C
:101340009C0A0E9429034B015C0188EEC82E83E0B1
:10135000D82EE12CF12C0E942903DC01CB01881945
:101360009909AA09BB09883E9340A105B10558F027
:1013700091E0C91AD108E108F108A8EE8A0EA3E0AD
:101380009A1EA11CB11CC114D104E104F10419F787
:1013900080E00E94AC0C0E9478041092A902109286
:1013A000A80203C06AEB71E012CEC25BDF4F0FB63A
:1013B000F894DEBF0FBECDBFDF91CF911F910F918B
:1013C000FF90EF90DF90CF90BF90AF909F908F9065
:1013D0007F906F905F904F903F9008950895CF92C7
:1013E000DF92EF92FF920F931F93CF93DF936C01E5
:1013F0007A018B01C0E0D0E0CE15DF0589F0D8017D
:101400006D918D01D601ED91FC910190F081E02D5F
:10141000C6010995892B11F47E0102C02196ECCFFB
:10142000C701DF91CF911F910F91FF90EF90DF9057
:10143000CF900895FC01538D448D252F30E0842FEB
:1014400090E0821B930B541710F0CF9608950197EC
:10145000089589EB92E00E94130321E0892B09F49F
:1014600020E0822F0895EF92FF920F931F93CF9366
:10147000DF93EC0181E0888F9B8D8C8D981305C0E4
:10148000E889F989808185FD24C0F62E0B8D10E056
:101490000F5F1F4F0F731127E02E8C8DE8120CC0C9
:1014A0000FB607FCFACFE889F989808185FFF5CF6F
:1014B000CE010E94AC03F1CF8B8DFE01E80FF11D30
:1014C000E35AFF4FF0820B8FEA89FB8980818062AB
:1014D00007C0EE89FF896083E889F989808180648B
:1014E000808381E090E0DF91CF911F910F91FF9079
:1014F000EF900895CF93DF93EC01888D8823C9F096
:10150000EA89FB89808185FD05C0A889B9898C910C
:1015100086FD0FC00FB607FCF5CF808185FFF2CFA7
:10152000A889B9898C9185FFEDCFCE010E94AC03CB
:10153000E7CFDF91CF910895FC01808191810C94D8
:10154000FD16FC0111821082138212821582148210
:101550006115710551F0FB0101900020E9F7319709
:10156000AF01461B570B0C94D50D08951F920F9297
:101570000FB60F9211242F933F934F935F936F9366
:101580007F938F939F93AF93BF93EF93FF9389EBD9
:1015900092E00E94AC03FF91EF91BF91AF919F91B8
:1015A0008F917F916F915F914F913F912F910F900C
:1015B0000FBE0F901F9018951F920F920FB60F92AB
:1015C00011242F938F939F93EF93FF93E091C90280
:1015D000F091CA028081E091CF02F091D00282FDA9
:1015E00012C090818091D2028F5F8F732091D302BD
:1015F000821751F0E091D202F0E0E754FD4F958F51
:101600008093D20201C08081FF91EF919F918F91D1
:101610002F910F900FBE0F901F901895DF92EF92B1
:10162000FF920F931F93CF93DF93082FF62E809195
:1016300070030E94CD0360E0809171030E94CD038E
:10164000E0906E03D0906F03C7E0D0E010E0980107
:101650000C2E02C0359527950A94E2F7B901617006
:1016600077278D2D0E94CD0361E08E2D0E94CD0342
:1016700060E08E2D0E94CD03219748F761E08091B4
:1016800071030E94CD03FF20D1F08091730390E09D
:10169000019664E570E00E942C1680937303892BF9
:1016A00071F48091740390E0019666E070E00E940E
:1016B0002C169C018093740381E0232B09F080E0B9
:1016C000DF91CF911F910F91FF90EF90DF900895E0
:1016D00090E0FC01EA58FA4F2491FC01EE59FA4FD0
:1016E0008491882399F090E0880F991FFC01E85AB3
:1016F000FA4FA591B491FC01E25BFA4F8591949168
:101700008FB7F894EC91E22BEC938FBF089500977C
:1017100069F0FC0101900020E9F73197AF01481B07
:10172000590BBC0189EB92E00C94EF0980E090E04A
:1017300008951F93CF93DF93182F80E591E00E94C7
:101740007504CCE5D3E060E088890E94CD0383E096
:101750000E946E04812F0E946E0480E00E946E043D
:10176000182F61E088890E94CD030E946D04812FAB
:10177000DF91CF911F910895EF92FF920F931F93E6
:10178000CF93DF931F92CDB7DEB7082F162F80E5DA
:1017900091E049830E9475048CE5E82E83E0F82EE1
:1017A00060E0F70180890E94CD0385E00E946E040D
:1017B000802F0E946E04812F0E946E044981842F25
:1017C0000E946E0461E0F70180890E94CD030F90B2
:1017D000DF91CF911F910F91FF90EF900C946D04CA
:1017E000CF93C82F482F60EE8FE00E94BC0B8FE094
:1017F0000E94990B807E91E08C1301C090E0892FAC
:10180000CF910895CF93DF930E94870BEC018AE27A
:1018100092E00E94870B8C0F9D1FDF91CF9108955E
:101820000F931F93CF93DF93082F162F80E591E03E
:101830000E947504CCE5D3E060E088890E94CD0366
:1018400082E00E946E04802F0E946E04812F0E940D
:101850006E0461E088890E94CD03DF91CF911F91D2
:101860000F910C946D04CF92DF92FF920F931F9310
:10187000CF93DF931F92CDB7DEB7F82E162F042F2C
:1018800080E591E079830E94750460E080916C03AB
:101890000E94CD0382E00E946E048F2D0E946E0490
:1018A000F12EC12E7981D72E8C2D8F19801730F40F
:1018B000F60181916F010E946E04F6CF61E0809184
:1018C0006C030E94CD030F90DF91CF911F910F9178
:1018D000FF90DF90CF900C946D04CF93DF9300D0F6
:1018E00000D0CDB7DEB71C821B82613019F498E0BE
:1018F0009A8301C01A82198244E0BE016F5F7F4F54
:101900000E94330C0F900F900F900F90DF91CF91AA
:101910000895FF920F931F93CF93DF93EC018C01F7
:10192000060F171FF12CC017D10761F0FE0194912B
:1019300061E0892F0E940E0B882311F0FF24F3949D
:101940002196F1CF8F2DDF91CF911F910F91FF90B5
:10195000089560E00C940E0B1F93CF93DF93182F24
:10196000109273031092740380E80E94A90C80E423
:101970000E94A90C1195C8EFD1E061E0812F0E946F
:101980000E0B2197D1F7109273031092740380E825
:101990000E94A90C80E4DF91CF911F910C94A90CB7
:1019A0008F929F92AF92BF920F931F93CF93DF932B
:1019B000CDB7DEB7A1970FB6F894DEBF0FBECDBF8F
:1019C00019A2423008F44AE08E010F5D1F4F842EA9
:1019D000912CA12CB12CA50194010E944016E62F58
:1019E000B901CA0101501109EA3014F4E05D01C0E7
:1019F000E95CD801EC93232B242B252B61F7C8013C
:101A00000E94870BA1960FB6F894DEBF0FBECDBF24
:101A1000DF91CF911F910F91BF90AF909F908F90CA
:101A20000895CF93DF93EC0188E00E94680B209724
:101A300011F460E004C0CF3FD10531F461E088E0EB
:101A4000DF91CF910C94CD03E2E4F5E0E491E33033
:101A5000F9F048F4E130B9F0E230A1F584B58062E4
:101A600084BDC8BD34C0E730E9F0E83019F1E43096
:101A700049F580918000806280938000D0938B0034
:101A8000C0938A0024C084B5806884BDC7BD1FC0D0
:101A900080918000806880938000D0938900C093FB
:101AA000880015C08091B00080688093B000C0931A
:101AB000B3000DC08091B00080628093B000C093ED
:101AC000B40005C0C038D1050CF0B8CFB2CFDF915B
:101AD000CF910895FC0180819181009711F00C94C1
:101AE000101160E070E0CB0108950F931F93CF9326
:101AF000DF938C01EB01FC01808191810097B1F0B3
:101B0000688179816115710579F0428153812C8159
:101B10003D814217530740F00E9476188C819D81C9
:101B2000F8019583848313C00E94FD1688819981F2
:101B3000F801918380838A819B81938382838C8146
:101B40009D8195838483198218821B821A821D824B
:101B50001C82DF91CF911F910F9108950F931F93D6
:101B6000CF93DF93EC0188819981009729F02A8136
:101B70003B812617370788F48B016F5F7F4F0E94E8
:101B80009517009761F0998388831B830A832C81C2
:101B90003D81232B11F4FC01108281E001C080E023
:101BA000DF91CF911F910F910895EF92FF920F93C4
:101BB0001F93CF93DF93EC017B018A01BA010E944E
:101BC000AE0D2881398181110DC02115310519F023
:101BD000C9010E94FD16198218821D821C821B8277
:101BE0001A8206C01D830C83B701C9010E947618B2
:101BF000CE01DF91CF911F910F91FF90EF9008954B
:101C0000CF93DF93EC016115710559F0FB01019051
:101C10000020E9F73197AF01461B570B0E94D50D05
:101C20000CC088819981009711F00E94FD161982DD
:101C300018821D821C821B821A82CE01DF91CF91F5
:101C40000895BF92CF92DF92EF92FF920F931F936E
:101C5000CF93DF937C016B018A01E90124173507DB
:101C600020F4812F8901C42FD82F6CE272E0C701C4
:101C70000E94A10AD60114968D919C911597081780
:101C80001907D0F48C179D0708F4EC01D601ED91EB
:101C9000FC911197EC0FFD1FB08010824D915C916B
:101CA000BA01600F711FC7010E94000ED601ED91AD
:101CB000FC91EC0FFD1FB082C701DF91CF911F9106
:101CC0000F91FF90EF90DF90CF90BF90089586E541
:101CD00093E00C949C0ACF93DF93CDB7DEB728979F
:101CE0000FB6F894DEBF0FBECDBF789484B5826086
:101CF00084BD84B5816084BD85B5826085BD85B5B0
:101D0000816085BD80916E00816080936E0010922D
:101D100081008091810082608093810080918100A8
:101D20008160809381008091800081608093800039
:101D30008091B10084608093B1008091B000816097
:101D40008093B00080917A00846080937A008091C3
:101D50007A00826080937A0080917A00816080931B
:101D60007A0080917A00806880937A001092C10096
:101D7000E091C902F091CA0282E08083E091C90239
:101D8000F091CA021082E091C502F091C602108261
:101D9000E091C702F091C80280E180831092D102E5
:101DA000E091CD02F091CE0286E08083E091CB02FB
:101DB000F091CC02808180618083E091CB02F09130
:101DC000CC02808188608083E091CB02F091CC02CC
:101DD000808180688083E091CB02F091CC02808189
:101DE0008F7D808389EB92E00E947A0A87EC91E0F4
:101DF0000E94870B80916E030E94680B80916F0395
:101E00000E94680B809170030E94680B809171039F
:101E10000E94680B809172030E94680B60E08091C1
:101E200072030E94CD0361E0809172030E94CD0392
:101E300081E20E94A90C80EB0E94A90C84E00E9420
:101E4000A90C84E10E94A90C80E20E94A90C8CE0FC
:101E50000E94A90C81E20E94A90C8CEB0E94A90CA3
:101E600080E20E94A90C81E00E94AC0C80E00E94FC
:101E7000AC0C0E9478041FB7F8948091B6028111CF
:101E800024C0ECE6F5E08491E0E8F5E09491E82FD9
:101E9000F0E0EE0FFF1FE85AFA4FA591B491EC91D4
:101EA000E92321F461E08AE00E94CD038AE00E94E8
:101EB000680B8CB580618CBD8CB580648CBD8DE069
:101EC0000E94680B8BE00E94680B8091B6028F5FC6
:101ED0008093B6021FBF80E591E00E94750460E028
:101EE00080916C030E94CD0380EC0E946E0461E03F
:101EF00080916C030E94CD030E946D0483E290E008
:101F00000197F1F780E480936D0380E80E94F00B65
:101F1000882319F08AED91E06CC083E092E00E9482
:101F2000870B60E08AE20E94100C60E989E20E945F
:101F3000100C62E888E20E94100C8DE292E00E9490
:101F4000870B61E080E20E946D0C61E084E20E94F8
:101F50006D0C61E080E00E946D0C60E084E00E9406
:101F60006D0C61E088E00E946D0C60E080E10E94F1
:101F70006D0C61E084E10E946D0C60E088E10E94DC
:101F80006D0C10E360E0812F0E94100C60E080E196
:101F9000810F0E94100C60E080E2810F0E94100C03
:101FA0001F5F1E3379F760E080E60E94100C60E04E
:101FB00080E70E94100C63E08BE20E94100C6CE33F
:101FC0008CE00E94100C60E08DE00E94100C44E652
:101FD00064E680E60E94BC0B40E660E680E70E9473
:101FE000BC0B80916D030E94F00B882339F08CE4C8
:101FF00092E00E94870B84E792E002C082E992E0BF
:102000000E94020C10926D0380E00E94F00B88E0A9
:102010000E94680B81E090E00E94110DDD24D394B2
:1020200089EB92E00E941303892B09F488C089EBA5
:1020300092E00E94F102182F8A3009F44DC080917D
:102040000001882329F080E00E94AC0C109200016E
:102050001A8219821C821B821E821D821F8318868F
:10206000BE01695F7F4FCE0101960E94000E8D81F7
:102070009E81E980FA8000915A0310915B03E1147C
:10208000F104E1F00097D1F0080F191FB80186E5BF
:1020900093E00E94AE0D882389F020915603309181
:1020A000570380915A0390915B03B701820F931FEE
:1020B0000E94761810935B0300935A03CE01019699
:1020C0000E949C0A8091B7029091B8020796909363
:1020D000B8028093B70233C08091560390915703A2
:1020E0000E94870B8CE292E00E94020C1092B802D0
:1020F0001092B702D09200011A8219821C821B82B0
:102100001E821D82609156037091570361157105FF
:1021100041F040915A0350915B03CE0101960E9419
:10212000D50DCE0101960E94B404CE0101960E9405
:102130009C0A6CE272E086E593E00E94000E0E9429
:102140001F036ECFCF93DF93E9EBF2E0138212828D
:1021500088EE93E0A0E0B0E084839583A683B78304
:102160008BE091E09183808385EC90E09587848774
:1021700084EC90E09787868780EC90E0918B808B51
:1021800081EC90E0938B828B82EC90E0958B848B3A
:1021900086EC90E0978B868B118E128E138E148EA8
:1021A000EEE6F3E083E0808384E0818385E0828350
:1021B00086E0838387E0848315821682CCE5D3E0B2
:1021C0008AE0888B61E00E94CD0388890E94680BB9
:1021D0006CE272E086E593E0DF91CF910C94A10A66
:1021E000EF920F931F93CF93DF93E80147FD02C057
:1021F00034E001C034E1E42F440FFF0BF7FF03C0CC
:10220000F195E195F109E32E022F2E2FAE010E94E8
:102210004C11CE01DF91CF911F910F91EF90089556
:102220001F93FC0199278827BC01E8941191103273
:10223000E9F3193010F01E30C8F31B3251F01D3293
:1022400049F4689406C00E943711610F711D811D09
:10225000911D119110531A30B0F33EF49095809572
:10226000709561957F4F8F4F9F4F1F910895592F04
:10227000482F372F262F660F771F881F991F660F4D
:10228000771F881F991F620F731F841F951F660F8A
:10229000771F881F991F08954F925F926F927F92C8
:1022A0009F92AF92BF92CF92DF92EF92FF920F93E5
:1022B0001F93CF93DF93CDB7DEB729970FB6F8946E
:1022C000DEBF0FBECDBF6A01122FB02E2BE3201749
:1022D00020F0FF24F394F00E02C0BCE3FB2E0F2D80
:1022E00027E0AE014F5F5F4F0E94DA12AC01898197
:1022F000982F9970913031F0E1FC06C0E0FE06C0E5
:1023000090E205C09DE203C09BE201C090E0EE2D8B
:10231000E07183FF3CC0911102C083E001C084E002
:10232000811718F4212F281B01C020E0E1110BC0F8
:10233000F601822F30E2882319F031938150FBCFD0
:10234000C20ED11C20E0992329F0D6019C93F601FE
:1023500031966F01C6010396E2FE0AC03EE4D60143
:102360003C9341E411964C93119712963C9306C00E
:102370003EE6F601308341E641833283FC01322F91
:1023800040E2332309F442C041933150FACF82FF37
:1023900044C0911102C083E001C084E0811718F4A9
:1023A000212F281B01C020E0E1110BC0F601822F74
:1023B00030E2882319F031938150FBCFC20ED11C3B
:1023C00020E0992329F0D6019C93F60131966F0104
:1023D000C6010396E2FE0BC039E4D6013C933EE40D
:1023E00011963C93119736E412963C9307C039E658
:1023F000F60130833EE6318336E63283FC01322F2C
:1024000040E2332319F041933150FBCFFC01E20F3E
:10241000F11D10828EEF9FEFB7C0F1E0911101C066
:10242000F0E06F2F70E01416150624F49A012F5F68
:102430003F4F02C021E030E0260F371FBB2029F0BC
:102440006B2D70E06F5F7F4F02C060E070E0260F81
:10245000371F612F70E0261737071CF4121B212F3E
:1024600001C020E03E2D387159F4D601322F60E2D0
:10247000332319F06D933150FBCFC20ED11C20E0F5
:10248000FF2331F0D6019C93B6016F5F7F4F6B0144
:10249000E1110BC0F601922F30E3992319F031932B
:1024A0009150FBCFC20ED11C20E09F2D940F3A819A
:1024B000782F7071A72E84FF03C0313309F4915037
:1024C000191624F4993018F098E001C091E0E42F37
:1024D000852F57FF02C0E0E080E06E2F782FE0E00C
:1024E000F0E0AEE29A2E3A01691A71082A01461A02
:1024F000570A0B2D10E01195019511096F3F8FEFD1
:10250000780729F4D6019C92C60101966C01461702
:10251000570784F0661677066CF47F01E40CF51C0F
:10252000A1E0B0E0AC0FBD1FEA0EFB1ED701119673
:10253000BC9002C090E3B92E615071093196C6017A
:1025400001967C016017710724F0D601BC926C01E2
:10255000D5CF6417750741F4363320F4353321F4B1
:10256000A11002C081E3B82EF601B082F701822FDC
:1025700090E2882319F091938150FBCFF701E20F8D
:10258000F11D108280E090E029960FB6F894DEBF2E
:102590000FBECDBFDF91CF911F910F91FF90EF90B4
:1025A000DF90CF90BF90AF909F907F906F905F90A3
:1025B0004F900895283008F027E03327DA01990F6B
:1025C000311D87FD916000966105710539F4326017
:1025D0002E5F3D9330E32A95E1F708959F3F30F059
:1025E00080387105610509F03C5F3C5F3D93913097
:1025F00008F08068911DDF93CF931F930F93FF9294
:10260000EF92192F987F9695E92F96959695E90F59
:10261000FF27EE53FF4F99273327EE24FF24A7010E
:10262000E70105900894079428F4360FE71EF81E7A
:10263000491F511D660F771F881F991F0694A1F728
:102640000590079428F4E70EF81E491F561FC11D78
:10265000770F881F991F661F0694A1F705900794AE
:1026600028F4F80E491F561FC71FD11D880F991F48
:10267000661F771F0694A1F70590079420F4490F71
:10268000561FC71FD81F990F661F771F881F0694F4
:10269000A9F784911095177041F0D695C795579575
:1026A0004795F794E7941A95C1F7E8E6F0E0689447
:1026B0001590159135916591959105907FE27395EF
:1026C000E118F10A430B560BC90BD009C0F7E10C16
:1026D000F11E431F561FC91FD01D7EF4703311F425
:1026E0008A95E6CFE894015030F0080F0AF40027ED
:1026F000021708F4202F2395022F7A3328F079E36C
:102700007D932A95E9F710C07D932A9589F6069462
:1027100097956795379517951794E118F10A430B2C
:10272000560BC90BD00998F023957E9173957A3397
:1027300008F070E37C932013B8F77E9170617D936D
:1027400030F0839571E37D9370E32A95E1F71124CE
:10275000EF90FF900F911F91CF91DF91992787FD07
:10276000909508950E94F41308F481E00895E89488
:1027700009C097FB3EF490958095709561957F4FC9
:102780008F4F9F4F9923A9F0F92F96E9BB27939577
:10279000F695879577956795B795F111F8CFFAF487
:1027A000BB0F11F460FF1BC06F5F7F4F8F4F9F4FB8
:1027B00016C0882311F096E911C0772321F09EE816
:1027C000872F762F05C0662371F096E8862F70E07C
:1027D00060E02AF09A95660F771F881FDAF7880F56
:1027E0009695879597F90895990F0008550FAA0BAC
:1027F000E0E8FEEF16161706E807F907C0F0121614
:102800001306E407F50798F0621B730B840B950B16
:1028100039F40A2661F0232B242B252B21F408956B
:102820000A2609F4A140A6958FEF811D811D089508
:102830000E942B140C949C140E948E1438F00E9459
:10284000951420F0952311F00C9485140C948B149E
:1028500011240C94D0140E94AD1470F3959FC1F311
:10286000950F50E0551F629FF001729FBB27F00D3E
:10287000B11D639FAA27F00DB11DAA1F649F662793
:10288000B00DA11D661F829F2227B00DA11D621FE2
:10289000739FB00DA11D621F839FA00D611D221F9C
:1028A000749F3327A00D611D231F849F600D211D80
:1028B000822F762F6A2F11249F5750409AF0F1F003
:1028C00088234AF0EE0FFF1FBB1F661F771F881F6C
:1028D00091505040A9F79E3F510580F00C9485140B
:1028E0000C94D0145F3FE4F3983ED4F3869577952B
:1028F0006795B795F795E7959F5FC1F7FE2B880F12
:10290000911D9695879597F9089597F99F6780E8A7
:1029100070E060E008959FEF80EC089500240A9431
:102920001616170618060906089500240A941216AA
:102930001306140605060895092E0394000C11F4DD
:10294000882352F0BB0F40F4BF2B11F460FF04C08A
:102950006F5F7F4F8F4F9F4F089557FD9058440FE3
:10296000551F59F05F3F71F04795880F97FB991FEE
:1029700061F09F3F79F087950895121613061406AB
:10298000551FF2CF4695F1DF08C016161706180638
:10299000991FF1CF86957105610508940895E89413
:1029A000BB2766277727CB0197F908952F923F928F
:1029B0004F925F926F927F928F929F92AF92BF924F
:1029C000CF92DF92EF92FF920F931F93CF93DF93FB
:1029D000CDB7DEB7CA1BDB0B0FB6F894DEBF0FBE58
:1029E000CDBF09942A88398848885F846E847D84A5
:1029F0008C849B84AA84B984C884DF80EE80FD80A7
:102A00000C811B81AA81B981CE0FD11D0FB6F8941C
:102A1000DEBF0FBECDBFED0108955058BB27AA27DA
:102A20000E9425150C949C140E948E1438F00E946C
:102A3000951420F039F49F3F19F426F40C948B146C
:102A40000EF4E095E7FB0C948514E92F0E94AD1479
:102A500058F3BA17620773078407950720F079F4D3
:102A6000A6F50C94CF140EF4E0950B2EBA2FA02DE2
:102A70000B01B90190010C01CA01A0011124FF272B
:102A8000591B99F0593F50F4503E68F11A16F04026
:102A9000A22F232F342F4427585FF3CF4695379525
:102AA0002795A795F0405395C9F77EF41F16BA0BEA
:102AB000620B730B840BBAF09150A1F0FF0FBB1F98
:102AC000661F771F881FC2F70EC0BA0F621F731FE1
:102AD000841F48F4879577956795B795F7959E3F3E
:102AE00008F0B0CF9395880F08F09927EE0F9795CF
:102AF000879508950E948E150C949C140E9495143D
:102B000058F00E948E1440F029F45F3F29F00C9495
:102B1000851451110C94D0140C948B140E94AD1494
:102B200068F39923B1F3552391F3951B550BBB27FC
:102B3000AA2762177307840738F09F5F5F4F220F41
:102B4000331F441FAA1FA9F335D00E2E3AF0E0E838
:102B500032D091505040E695001CCAF72BD0FE2F82
:102B600029D0660F771F881FBB1F26173707480716
:102B7000AB07B0E809F0BB0B802DBF01FF279358CE
:102B80005F4F3AF09E3F510578F00C9485140C94F9
:102B9000D0145F3FE4F3983ED4F38695779567951C
:102BA000B795F7959F5FC9F7880F911D9695879503
:102BB00097F90895E1E0660F771F881FBB1F621722
:102BC00073078407BA0720F0621B730B840BBA0BE0
:102BD000EE1F88F7E09508950E94F3156894B111EF
:102BE0000C94D01408950E94B51488F09F5798F063
:102BF000B92F9927B751B0F0E1F0660F771F881F02
:102C0000991F1AF0BA95C9F714C0B13091F00E941B
:102C1000CF14B1E008950C94CF14672F782F882734
:102C2000B85F39F0B93FCCF3869577956795B39542
:102C3000D9F73EF490958095709561957F4F8F4FB1
:102C40009F4F08950E94F41308F48FEF08950E9497
:102C5000F413880B990B0895AA1BBB1B51E107C005
:102C6000AA1FBB1FA617B70710F0A61BB70B881F1C
:102C7000991F5A95A9F780959095BC01CD010895AB
:102C8000A1E21A2EAA1BBB1BFD010DC0AA1FBB1F70
:102C9000EE1FFF1FA217B307E407F50720F0A21BE2
:102CA000B30BE40BF50B661F771F881F991F1A944F
:102CB00069F760957095809590959B01AC01BD0179
:102CC000CF010895EE0FFF1F0590F491E02D0994B8
:102CD000CF93DF938230910510F482E090E0E09191
:102CE0007703F091780320E030E0C0E0D0E0309747
:102CF00011F14081518148175907C0F04817590711
:102D000061F482819381209719F09B838A832BC081
:102D1000909378038093770326C02115310519F02D
:102D20004217530718F49A01BE01DF01EF01028038
:102D3000F381E02DDCCF2115310509F1281B390B7A
:102D40002430310590F412968D919C911397611562
:102D5000710521F0FB019383828304C09093780373
:102D600080937703FD01329644C0FD01E20FF31F0B
:102D700081939193225031092D933C933AC0209135
:102D8000750330917603232B41F420910301309198
:102D90000401309376032093750320910101309153
:102DA00002012115310541F42DB73EB740910501CF
:102DB00050910601241B350BE0917503F0917603C9
:102DC000E217F307A0F42E1B3F0B2817390778F002
:102DD000AC014E5F5F4F2417350748F04E0F5F1F61
:102DE00050937603409375038193919302C0E0E082
:102DF000F0E0CF01DF91CF9108950F931F93CF9310
:102E0000DF93009709F48CC0FC0132971382128281
:102E100000917703109178030115110581F4208149
:102E20003181820F931F209175033091760328170B
:102E3000390779F5F0937603E093750371C0D801F3
:102E400040E050E0AE17BF0750F412962D913C9130
:102E50001397AD012115310509F1D901F3CF9D017A
:102E6000DA013383228360817181860F971F821775
:102E7000930769F4EC0128813981260F371F2E5FF3
:102E80003F4F318320838A819B8193838283452BAB
:102E900029F4F0937803E093770342C01396FC93F0
:102EA000EE931297ED01499159919E01240F351F20
:102EB000E217F30771F480819181840F951F0296C8
:102EC00011969C938E938281938113969C938E93FB
:102ED0001297E0E0F0E0D80112968D919C91139743
:102EE000009719F0F8018C01F6CF8D919C91980113
:102EF0002E5F3F4F820F931F209175033091760311
:102F00002817390769F4309729F410927803109242
:102F1000770302C013821282109376030093750325
:102F2000DF91CF911F910F910895A0E0B0E0EBE900
:102F3000F7E10C94DA14EC01009721F4CB010E9424
:102F40006816B8C0FC01E60FF71F9C01225031093A
:102F5000E217F30708F4ACC0D9010D911C91119749
:102F600006171707B0F00530110508F49FC0C80117
:102F700004978617970708F499C002501109061B99
:102F8000170B019311936D937C93CF010E94FD1653
:102F90008DC05B01A01AB10A4C01800E911EA09158
:102FA0007703B091780340E050E0E12CF12C1097CA
:102FB00009F44AC0A815B905D1F56D907C90119718
:102FC000630182E0C80ED11CCA14DB0480F1A301A6
:102FD0004A195B096A0182E0C80ED11C1296BC90A6
:102FE00012971396AC91B5E0CB16D10440F0B282A3
:102FF000A38351834083D9016D937C930AC00E5FF4
:103000001F4FC301800F911FF90191838083EB2D26
:10301000FA2FE114F10431F0D7011396FC93EE93EB
:10302000129744C0F0937803E09377033FC08D91EB
:103030009C9111974817590708F4AC017D0112962D
:103040000D90BC91A02DB3CF809175039091760324
:1030500088159905E1F446175707C8F480910101D6
:1030600090910201009741F48DB79EB74091050100
:1030700050910601841B950BE817F907C8F4F093EB
:103080007603E0937503F901718360830FC0CB0170
:103090000E9468167C01009759F0A801BE010E94A9
:1030A0006418CE010E94FD16C70104C0CE0102C003
:1030B00080E090E0CDB7DEB7EEE00C94F61481E04E
:1030C00090E0F8940C947D18FB01DC0102C00190A3
:1030D0000D9241505040D8F70895FB01DC018D91CD
:1030E000019080190110D9F3990B0895FB01DC01BF
:1030F00001900D920020E1F7089512E0C6ECD2E0B5
:1031000004C0FE010E9462162196C73CD107C9F790
:04311000F894FFCF61
:103114000100007903800000000000330AEF091A5F
:103124000A7A0A1303F1020503203D3D4D41494E3D
:103134002D4652414D453D3D00203D3D204253200A
:103144002336343034203D3D0053656E64204341C2
:103154004E003D3D3D43414E4255532D53454E4453
:103164003D3D0049442020203D3E2000444154413F
:10317400203D3E2000203D3D20454E564941444FD0
:10318400203D3D004D656E75004272696C686F00AC
:10319400203D3D5345542D4252494C484F3D3D003E
:1031A4006E616E00696E66006F7666002042524959
:1031B4004C484F203D3E2000203D434F4D4D414E55
:1031C400442D4552524F523D2000203D3D20455252
:1031D400524F52203D3D0053657269616C20417627
:1031E40061696C61626C650D0A00456E7465726993
:1031F4006E6720436F6E66696775726174696F6E7E
:10320400204D6F6465204661696C7572652E2E2EA3
:103214000D0A00456E746572696E6720436F6E66B1
:10322400696775726174696F6E204D6F64652053B0
:1032340075636365737366756C210D0A0053657459
:1032440074696E6720426175647261746520537598
:10325400636365737366756C210D0A00526574753A
:10326400726E696E6720746F2050726576696F752F
:1032740073204D6F6465204661696C7572652E2EEE
:103284002E0D0A004572726F7220496E697469616D
:103294006C697A696E67204D4350323531352E2E74
:1032A4002E004D43503235313520496E69746961C1
:0832B4006C697A6564210000D9
:00000001FF
